:020000040800F2
:10000000601200246D030008E93E0008C13D0008AD
:10001000E13E00088104000891450008000000004E
:10002000000000000000000000000000494200083D
:100030008110000800000000F13F00085142000854
:100040008B0300088B0300088B0300088B03000858
:100050008B0300088B0300088B0300088B03000848
:100060008B0300088B0300088B0300088B03000838
:100070008B0300088B0300088B0300088B03000828
:100080008B0300088B0300088B030008C1100008D5
:100090008B030008D11000088B0300088B030008B5
:1000A0008B0300088B0300088B0300088B030008F8
:1000B000F94300088B0300088B0300088B0300083A
:1000C0008B0300088B0300088B0300088B030008D8
:1000D0008B0300088B0300088B0300088B030008C8
:1000E0008B0300088B030008000000008B0300084E
:1000F0008B0300088B0300088B0300088B030008A8
:100100008B0300088B0300088B0300088B03000897
:100110008B0300088B030008094400088B030008C8
:100120008B0300088B0300088B0300088B03000877
:100130008B0300088B0300088B0300088B03000867
:1001400000000000000000000000000000000000AF
:100150008B0300088B0300088B0300088B03000847
:100160008B0300088B0300088B0300088B03000837
:100170008B0300088B0300088B03000800000000BD
:100180008B0300088B0300088B0300088B03000817
:100190008B0300088B0300088B0300088B03000807
:1001A0008B0300088B0300088B030008000000008D
:1001B0008B0300088B0300088B0300088B030008E7
:1001C0008B0300088B030008000000000000000003
:1001D00000000000000000008B0300080000000089
:1001E000000000000000000000000000000000000F
:1001F00000000000000000008B0300088B030008D3
:100200008B0300088B030008000000008B0300082C
:100210008B0300088B0300088B0300088B03000886
:100220008B030008000000008B03000800000000A2
:100230008B0300088B030008000000008B030008FC
:100240008B0300088B0300088B0300088B03000856
:100250008B0300088B0300088B0300088B03000846
:100260008B0300088B0300088B0300088B03000836
:100270008B0300088B0300088B03000800000000BC
:100280008B0300088B0300088B0300088B03000816
:10029000000000008B0300088B0300080000000032
:1002A000000000008B0300088B0300088B0300088C
:1002B0008B0300088B0300088B0300088B030008E6
:1002C0008B0300088B0300088B03000800F002F882
:1002D00000F03CF80AA090E8000C82448344AAF1A4
:1002E0000107DA4501D100F031F8AFF2090EBAE8A2
:1002F0000F0013F0010F18BFFB1A43F0010318475A
:10030000C4430000E4430000103A24BF78C878C119
:10031000FAD8520724BF30C830C144BF04680C600B
:10032000704700000023002400250026103A28BF53
:1003300078C1FBD8520728BF30C148BF0B60704757
:100340001FB504F07CF91FBD10B510BD00F05CF8BE
:100350001146FFF7F5FF04F01FF900F07AF803B437
:10036000FFF7F2FF03BC00F081F800000A48804765
:100370000A4880470A480047FEE7FEE7FEE7FEE737
:10038000FEE7FEE7FEE7FEE7FEE7FEE70548064973
:10039000064A074B704700009110000821430008EF
:1003A000CD020008600C002460120024600E0024BE
:1003B000600E00244FF0000200B5134694469646A6
:1003C000203922BFA0E80C50A0E80C50B1F1200168
:1003D000BFF4F7AF090728BFA0E80C5048BF0CC016
:1003E0005DF804EB890028BF40F8042B08BF704774
:1003F00048BF20F8022B11F0804F18BF00F8012BE6
:100400007047704770477047754600F02BF8AE464E
:1004100005006946534620F00700854618B020B510
:10042000FFF7B4FFBDE820404FF000064FF0000793
:100430004FF000084FF0000BAC46ACE8C009ACE848
:10044000C009ACE8C009ACE8C00921F007018D463D
:10045000704710B50446AFF300802046BDE8104059
:10046000FFF77DBF004870471000002401491820A5
:10047000ABBEFEE72600020070470000000000004F
:10048000FEE70000000000002DE9F04F81B02DEDE7
:10049000028B8AB00DF1040840F2780A40F6180584
:1004A00040F6200908F110040026C2F2004AC2F208
:1004B0000045C2F200499FED688A4FF0000B2BE027
:1004C000082004901AF80B006FF00901039640F21F
:1004D000FF120296052826606660A66038BF6FF09E
:1004E0000101E660266138BF4FF4007201EB400065
:1004F000C1B2019255FA80F03A8B3B8B1B0A6B54C8
:100500004270484641462A4600F032FE0BF1F40B99
:10051000BBF5F46F00F09A800AEB0B07787858B3BC
:10052000B878F97888421FD0B878F8703E833E8456
:10053000F878022808D187F86C60B0EE480ABE63EC
:10054000BE64C7F88C6001E097ED0E0A07F1A400C5
:1005500087ED070A03F044FD07F1CC0003F040FDEE
:1005600087F86F60A7F86D60F8780428A8D8DFE8EE
:1005700000F0030555595D003E83A1E7B7F920005F
:1005800097ED021A00EE100AB8EEC00A21EE000A3A
:1005900097ED031AB7F93C0097F8701020EE010AA6
:1005A00001EE100A87ED360AB8EEC11A87ED371A48
:1005B000A1B1B7F97C00414201EE100A02EE101A17
:1005C000B8EEC11AB8EEC22A80FE411AB4EE402A33
:1005D000F1EE10FA32FE010A87ED360A07F1CC007F
:1005E00003F086FCB7F91400B7F9181001EE101AE1
:1005F000B8EEC11A30EE010ABDEEC00A10EE101AB4
:1006000039834142B7F918208A4205DBB7F918103F
:1006100081420146D8BF398B398351E7384600F013
:10062000C3FA4DE7384600F0CFFC49E7B7F91400AC
:10063000B7F9181042429142FFF642AFB7F91810CD
:1006400081423FF73DAF388B3AE700BF0AB0BDECBF
:10065000028B01B0BDE8F08F000000000000000038
:10066000F0B581B02DED0C8B40F278040022C2F27F
:100670000044002340F2F416002161704FF0010C99
:10068000A17040F2011E84F86CC0C4F28732C4F835
:100690006D10CCF2873384F8711042F21077A4F811
:1006A00072E04FF4FA55C4E91D23A4F87C70C0F63B
:1006B000B836C4E9205684F888100220C4E9231112
:1006C000C4E92511C4E9271121839FEDFC8AE1616A
:1006D0009FEDFB9A21849FEDFBAAE162B0EE480AF0
:1006E000A164F0EE490AA4F86010B0EE4A1A84F84A
:1006F000F51084F8F61084F860C1C4F8611184F82C
:100700006511A4F866E1C4E95A23A4F87071C4E93C
:100710005D5684F87C11C4E96011C4E96211C4E932
:100720006411A4F80C11C4F81011A4F81411C4F841
:100730002011C4F83C11A4F8541184F8E91184F88C
:10074000EA1184F854C284F85912C4F85512A4F876
:100750005AE2C4E99723A4F86472C4E99A5684F86B
:100760007012C4E99D11C4E99F11C4E9A111A4F854
:100770000012C4F80412A4F80812C4F81412C4F841
:100780003012A4F8481284F8DD1284F8DE1284F8DE
:1007900048C384F84D13C4F84913A4F84EE3C4E9E0
:1007A000D423A4F85873C4E9D75684F86413C4E971
:1007B000DA11C4E9DC11C4E9DE11A4F8F412C4F8BA
:1007C000F812A4F8FC12C4F80813C4F82413A4F80F
:1007D0003C1384F8D11384F8D21384F83CC484F811
:1007E0004114C4F83D14A4F842E4C4F84424C4F805
:1007F0004834A4F84C74C4F85054C4F8546484F8D1
:100800005814C4F85C14C4F86014C4F86414C4F830
:100810006814C4F86C14C4F87014A4F8E813C4F88D
:10082000EC13A4F8F013C4F8FC13C4F81814A4F8DB
:10083000301484F8C51484F8C61484F830C584F8DC
:100840003515C4F83115A4F836E5C4F83825C4F8D0
:100850003C35A4F84075C4F84455C4F8486584F89C
:100860004C15C4F85015C4F85415C4F85815C4F8FC
:100870005C15C4F86015C4F86415A4F8DC14C4F859
:10088000E014A4F8E414C4F8F014C4F80C15A4F8A7
:10089000241584F8B91584F8BA1584F824C684F8A8
:1008A0002916C4F82516A4F82AE6C4F82C26C4F89C
:1008B0003036A4F83476C4F83856C4F83C6684F868
:1008C0004016C4F84416C4F84816C4F84C16C4F8C8
:1008D0005016C4F85416C4F85816A4F8D015C4F825
:1008E000D415A4F8D815C4F8E415C4F80016A4F873
:1008F000181684F8AD1684F8AE1684F818C784F874
:100900001D17C4F81917A4F81EE7C4F820274FF0E4
:100910007E52C4F824370023A4F82877C4F21023A9
:10092000C4F82C5741F29415C4F8306740F2FF1612
:1009300084F83417C4F83817C4F83C17C4F84017C3
:10094000C4F84417C4F84817C4F84C17A4F8C416E0
:10095000C4F8C816A4F8CC16C4F8D816C4F8F4160F
:10096000A4F80C1741F6FF7184F8F40004F1FC00C0
:10097000A1804CC0032084F8E80104F5F870A4F8C5
:10098000F810A4F8EC114CC0042084F8DC0204F543
:100990003970A4F8E012A4F8D4134CC0052084F8F0
:1009A000D0034AF22C00A4F8C814C4F29910C4F879
:1009B000D004C4E9F620A4F8BC15C4F8C405A4F812
:1009C000B0160121C4F8B80604F1A40084F800C0F0
:1009D000C4E9022326614FF40073A5820626A4F819
:1009E0000851A4F8FC51A4F8F052C4F8E033A4F87C
:1009F000E47384F8C4640726C4F8CC24C4F8D4345F
:100A0000A4F8D87484F8B8650826C4F8C025C4F8DA
:100A1000C835A4F8CC7584F8AC66C4F8B426C4F81C
:100A2000BC36A4F8C07603F0CFFAB1EE06BA9FED5B
:100A30005BCA9FED5BDAF0EE4C0AB0EE4D1A04F1A2
:100A4000CC00B0EE4B0A002103F0BEFAB0EE480A2B
:100A5000F0EE490AB0EE4A1A04F5CC70012103F019
:100A6000B3FAB0EE4B0AF0EE4C0AB0EE4D1A04F5B4
:100A7000E070002103F0A8FAB0EE480AF0EE490A4F
:100A8000B0EE4A1A04F52370012103F09DFAB0EE8E
:100A90004B0AF0EE4C0AB0EE4D1A04F52D70002111
:100AA00003F092FAB0EE480AF0EE490AB0EE4A1AA4
:100AB00004F56070012100F007B800BF295C8F3D8C
:100AC0006F12033A0000000003F07EFAB0EE4B0A0A
:100AD000F0EE4C0AB0EE4D1A04F56A70002103F0F6
:100AE00073FAB0EE480AF0EE490AB0EE4A1A04F280
:100AF0007440012103F068FAB0EE4B0AF0EE4C0AA4
:100B0000B0EE4D1A04F29C40002103F05DFAB0EE05
:100B1000480AF0EE490AB0EE4A1A04F5AD60012128
:100B200003F052FAB0EE4B0AF0EE4C0AB0EE4D1A5A
:100B300004F5B260002103F047FAB0EE480AF0EE87
:100B4000490AB0EE4A1A04F25C60012103F03CFA53
:100B5000B0EE4B0AF0EE4C0AB0EE4D1A04F284608F
:100B6000002103F031FAB0EE480AF0EE490AB0EE87
:100B70004A1A04F5EA60012103F026FA04F5EF6051
:100B80000021B0EE4B0AF0EE4C0AB0EE4D1ABDEC6F
:100B90000C8B01B0BDE8F04003F016BA9A99993E6B
:100BA0000AD7233C0000000010B5044690ED020A6D
:100BB00090ED031A90ED072A808822EE002A03EEBA
:100BC000100A22EE012AB8EE433A22EE034A9FEDC4
:100BD000432A84EE024ABDEEC44A84ED0B4A94EDEA
:100BE0000B4A94F87100B8EEC44A002804F1A4003E
:100BF00084ED2C4A28D094ED1E4A24EE034A20EEC0
:100C0000044A21EE044A84EE024ABDEEC45A94ED31
:100C10001D4AE26A15EE101A8A420FDB24EE033AEF
:100C2000E26A20EE030A21EE000A80EE020ABDEE1F
:100C3000C00A10EE101A8A42D8BFE16A00EE101AFC
:100C4000B8EEC00A84ED2C0A94ED120AB8EEC00A80
:100C500084ED2D0A03F04CF9B4F93C0094F87210BD
:100C600084ED360A01EE100A04F1CC00B8EEC11A88
:100C700084ED371AA1B1D4F880104A4201EE101A5F
:100C800002EE102AB8EEC11AB8EEC22A80FE411A4E
:100C9000B4EE402AF1EE10FA32FE010A84ED360A73
:100CA00003F026F9B4F91400B4F9181001EE101A83
:100CB000B8EEC11A30EE010ABDEEC00A10EE101AED
:100CC00021834142B4F918208A4205DBB4F9181097
:100CD00081420146D8BF218B218310BD0000B4435F
:100CE00010B5002908BF002A00D010BDB0F5007F64
:100CF000FBD9B0F5027FF8D8089AA0F2012E40F295
:100D0000780CF4211088C2F2004C0EFB01C19FED5B
:100D1000481A00BA030C084620F8443F53881BBA0F
:100D20001B0C8B8793881BBA1C0C0B4623F8344F83
:100D300013ED0A0AB4EE410AF1EE10FA0CD19279E1
:100D40009FED3D2A81F84C20B3F9001001EE101AF6
:100D5000B8EEC11A0CE000BFB3F900109FED352AC0
:100D600001EE101AB8EEC11A81EE021AB2EE042A90
:100D7000F42121EE021A0EFB01C2134682ED101A75
:100D80000088B2F86010401A23F8460F0020C3F81C
:100D90005200B3F90000B3F90010B0F1FF3FD8BF23
:100DA0004942B1F5805F09DD1888B3F900109488D5
:100DB000B1F1FF3FC8BF644220441880B3F900007E
:100DC00052F8481F0844106092ED001A32F8440CA3
:100DD00012ED103AB8EEC11A02EE100AB8EE422A2D
:100DE00023EE022A9FED153A21EE031A22EE000AA5
:100DF00081EE000A02ED040A12F8470C28B1F42033
:100E000011680EFB00C0C0F88C10F4200EFB00C16E
:100E1000084610F86C3F002B08BF10BDA2F110036C
:100E200000241C601460C1F88C40047010BD00BF29
:100E30002CA0994100401C46E5FF9F3A0000B443B6
:100E40002DE9F04788B040F27009C2F20049B9F8C4
:100E50000000A8B340F65818C2F20048B9F80400E0
:100E6000B9F8041000EB400001EB410108EB00155C
:100E700000012F1D08EB011101F1280C58F80000AA
:100E80008ECFD5E90564D5E907EA6D6ACDF818C0BB
:100E9000CDE90076CDE9024ECDE904A5FFF720FFAC
:100EA000B9F80400013000F00F00A9F80400B9F807
:100EB00000000138A9F80000B9F800000028CDD1E1
:100EC00008B0BDE8F0870000B0B540F2700CC2F287
:100ED000004CBCF800E0BEF10F0F88BFB0BDBCF8FD
:100EE00002E00EEB4E0440F6581EC2F2004E250101
:100EF0000EEB04144EF8050004982061059860611B
:100F00000698A0610798E0610A98C4E9011208995F
:100F1000E3602162099961620178BCF8022002EB6A
:100F200042020EEB021282F828104178BCF802202F
:100F300002EB42020EEB021282F829108178BCF813
:100F4000022002EB42020EEB021282F82A10C17854
:100F5000BCF8022002EB42020EEB021282F82B10C8
:100F60000179BCF8022002EB42020EEB021282F879
:100F70002C104179BCF8022002EB42020EEB021267
:100F800082F82D108179BCF8022002EB42020EEBB0
:100F9000021282F82E10C079BCF8021001EB410158
:100FA0000EEB011181F82F00BCF80200013000F0B7
:100FB0000F00ACF80200BCF800000130ACF80000F3
:100FC000B0BD00000000000070B50446B0F93C0060
:100FD00004F1CC05B4F9841001EE100A284600EEA5
:100FE000101AB8EEC11A84ED371AB8EEC00A84EDB3
:100FF000360A02F07DFFB4F91800B4F9861001EE4C
:10100000100AB8EEC11A30EE010ABDEEC00A10EEA9
:10101000100A20834842B4F91820824205DBB4F953
:10102000180088420846D8BF208B2083B4F94600B8
:10103000B4F94610B0F1FF3FD8BF494204291CDC87
:10104000D4F89000652800F10100C4F8900038BF82
:1010500070BD012084F86F0004F1A4000026C4F8DC
:101060009060667002F0BCFF284602F0B9FF84F879
:101070006C60A663A664C4F88C6070BD00000000BC
:10108000704700000000000072B600BFFEE70000DD
:1010900044F60400C5F60200816841F00201816057
:1010A0000168890409D4016889045CBF01685FEAAA
:1010B000814102D401688904F2D570470000000024
:1010C00040F62000C2F2004000F02EBA00000000FE
:1010D00040F62000C2F2004000F026BA00000000F6
:1010E00090F89830013B012B0ED80068836D0B42BD
:1010F00012D0836D0B408B4216D1C36D43F00203B7
:10110000C3658B0514D418E000F19C010120022274
:101110000B681A430A607047C36D43F00103C3654F
:101120008B0505D409E000BF0323C3658B0504D5F7
:10113000D0F8E0301343C0F8E0304B0504D5D0F8C8
:10114000E4301A43C0F8E4204FF6FF72436DC3F653
:10115000CF720A401A4342658A0F4AF614010020F2
:10116000C4F200010B681A430A60704700000000D7
:101170002DE9F04390F89830022B19D10668D6F883
:10118000C03013F07C5F1DD0D6F8C4309B0223D44E
:10119000D6F8C4304D68002D0D69C3F3044C8B683C
:1011A00024D00C682B43234343F0804E22E000BF41
:1011B000D0F89C1041F00801C0F89C100120BDE857
:1011C000F08300BFD0F89C1041F02001C0F89C10C3
:1011D0000120BDE8F08300BFD0F89C1041F40071FD
:1011E000C0F89C100120BDE8F08300BF0C682B43C1
:1011F00043EA844E836ED0F88450D1E907970CFB04
:1012000003F48B6949EA0767D1F81480D1F80C9090
:101210001F4305EB840347EA080745F824E047EA43
:1012200009475F60CF6887B144F2B4650833033281
:101230000024C0F6000500BF171957F8037C1F51A2
:10124000CF680434EF5DBC42F6D3012101FA0CF102
:10125000C6F8D010C0F894100020BDE8F08300005C
:10126000704700000000000080B590F89820013A17
:10127000012A0BD80A68002ACA680FD00B69072A0E
:1012800043EA427E18D18B691BE000BFD0F89C1066
:1012900041F00201C0F89C10012080BD072A19D13D
:1012A0000A69D1F81CC012048B6942EA0C221A4365
:1012B00042F0605218E000BFD1F808C04B6943EA21
:1012C0008C73006F496800EBC10240F831E00020E8
:1012D000536080BD8B68D1F810C09B0743EAC2629F
:1012E0004B6942EA0C421A434968C06E40F821201B
:1012F000002080BD000000007047000000000000DA
:1013000070470000000000002DE9F04390F898704D
:10131000022F27D140292FD10668D6F8A07017F4E4
:10132000FE0F00F0C780D6F8A4707F0600F0D480CE
:10133000D6F8A470D6F8A450ED01C7F3052E0AD54F
:10134000D6F8A070B7F1FF3F05DC0EF10107D6F823
:10135000A06007EA164E00F1740400F14405F4465B
:101360003CE000BFD0F89C1041F00801C0F89C1090
:101370000120BDE8F08300BF412925D10668D6F8D9
:10138000B07017F4FE0F00F09580D6F8B4707F06A9
:1013900000F0A280D6F8B470D6F8B450ED01C7F3CF
:1013A000052E0AD5D6F8B070B7F1FF3F05DC0EF177
:1013B0000107D6F8B06007EA164E00F1780400F194
:1013C0004C05F4460AE000BF076D8F4272D900F168
:1013D0007C0400F154054FF0000C8E462D68246803
:1013E0000EFB05F504EB850E54F8257017F08047C9
:1013F000576054F8257027F0604608BFC7F38A4647
:10140000166054F8257007F00057976054F825408F
:1014100004F000441461BEF80440D461BEF80640F4
:1014200014F00F04D460DEF8044004F48014546116
:10143000DEF8044004F4001494619EF8074004F0C0
:101440007F041462DEF804404FEAD474546228D05A
:1014500044F2B4680024C0F600080EEB0406651CD4
:10146000377A1F55D76818F80770BD4219D21F196F
:10147000757A7D70D56818F80590A51C4D453FBF5D
:10148000B57ABD70D56818F805903CBFE51C4D4590
:1014900007D2F57A0434FD70D56818F80550AC42CF
:1014A000DBD3402910D10068C0F8A8C00020BDE8F7
:1014B000F08300BFD0F89C1041F02001C0F89C10D0
:1014C0000120BDE8F08300BF41290FD10068C0F8BA
:1014D000B8C00020BDE8F083D0F89C1041F48071C2
:1014E000C0F89C100120BDE8F08300BF1F2909D877
:1014F0000068012202FA01F1C0F898100020BDE84E
:10150000F08300BF006801F01F01012202FA01F11F
:10151000C0F89C100020BDE8F0830000000000002F
:1015200070470000000000002DE9F04F89B004462C
:101530004AF61000C4F2000001684AF61400C4F232
:1015400000000268206802EA0108056DD0F8549096
:10155000036D0293436D0193036D0493436D0393F5
:10156000036D0893436D0793036D0693436D0593D5
:10157000D0F854A0D0F850B05FEACA530ED51BF48F
:1015800080710BD04FF4807101654AF61001002084
:10159000C4F2000108602046FFF7C2FF05EA090611
:1015A0004AF610095FEA4A50C4F200094FEA887708
:1015B00011D51BF480600ED02068D0F8DC10D0F874
:1015C000E42011404FF4806202650020C9F8000059
:1015D000204600F0FDFBDDE9011000EA010506F4FC
:1015E000704657B120680021016508F00300C9F872
:1015F000000020463946FFF733FEDDE9031000EA1C
:10160000010705F00F0546B1206831460665002048
:10161000C9F80000204600F0E3FB07F0F00645B1F2
:101620002068294605650020C9F80000204600F022
:101630006FFB46B12068314606650020C9F80000FE
:10164000204600F08DFB5FEA0A500CD51BF40060C9
:1016500009D020684FF4006101650020C9F800003E
:10166000204600F0C1FB5FEA8A5011D51BF40070E0
:101670000ED02068D0F8D810D0F8E02011404FF4F8
:10168000007202650020C9F80000204600F0A4FBAB
:101690005FEA0A300CD51BF4002009D020684FF413
:1016A000002101650020C9F80000204600F02CFB55
:1016B0005FEACA300CD51BF4803009D020684FF4A3
:1016C000803101650020C9F80000204600F07CFB55
:1016D0005FEA4A30DDE9051000EA01050CD51BF48C
:1016E000802009D020684FF4802101650020C9F8CE
:1016F0000000204600F064FB5FEA8A30DDE9071055
:1017000000EA010005F060710FD51BF400320CD027
:1017100022684FF4003313650022C9F80020D4F882
:101720009C2042F08002C4F89C2000F0715539B131
:10173000206801650020C9F800002046FFF7E0FDA1
:10174000206845B105650021C9F80010D4F89C1047
:101750002943C4F89C10A9F5016188420AD0D4F845
:101760009C00002868D0204609B0BDE8F04FFFF784
:10177000C3BD00BF606881688907F0D0016A426A12
:10178000036A476A114003EA070202F03005D0F805
:101790002080D0F82490D0F820B0D0F824A0026A9D
:1017A000089211F00F01426A0792466A026A069295
:1017B00003D00162204600F0F7FA08EA09072DB1CC
:1017C000606829460562204600F0F6FA70060BEACA
:1017D0000A0607F4C0750ED5069810F040000AD02E
:1017E00060684023C16BC26B090C02F03F020362C8
:1017F000204600F0DDFADDE9071000EA010706F4F3
:10180000FC462DB1606829460562204600F0C8FA02
:1018100007F4F02036B161680E62D4F89C103143B1
:10182000C4F89C1000289AD061680862D4F89C1013
:101830000843C4F89C0092E709B0BDE8F08F0000AF
:101840002DE9F04F85B0A8B34AF200080446C4F26F
:1018500000080068404531D094F89810A9B3816918
:1018600021F01001816100F0BFFB0546206881690D
:10187000090705D500F0B8FB401B0B28F6D310E094
:10188000816941F00101816100F0AEFB054600BFB6
:1018900020688169C90721D100F0A6FB401B0B28F5
:1018A000F6D30120D4F89C100843C4F89C00032010
:1018B00084F89800012005B0BDE8F08F08F580712C
:1018C000616094F898100029C9D1002084F899002B
:1018D000204600F0B5F92068C1E700BF816941F0FA
:1018E00002018161217C826922F04002012918BF36
:1018F00040328261617C826922F48042012908BF02
:1019000002F580428261A17C826922F48052012921
:1019100018BF02F580528261816921F44073D4E9D5
:1019200002120B438361836923F0A403836103697B
:1019300023F0100303619AB1012A0DD0022A09D0C5
:101940008369032A43F080038361036943F0100233
:10195000026105D1202200E0042283691A438261DA
:10196000D4E90572E369561E6FF0FF02256A02EBA7
:101970000323B1F5407F43EA4663A5F1010646EA39
:10198000030640F20003CFF6FF7303EB074746EA76
:101990000701C16110D1D4E90B65D4E90917013FF2
:1019A00002EB06226FF00F063A4306EB05173A43A7
:1019B00003EB01411143C160236E2BB1616ED0F87E
:1019C000C0201143C0F8C010E16DCDE90313D94226
:1019D00044F25861C0F6000109D0D0F8C820A36EC7
:1019E00022F0070251F823301A43C0F8C820D4F877
:1019F00040A0BAF1000F09D0D0F8BC20636C22F0EF
:101A0000070251F823301A43C0F8BC20A76C57B125
:101A1000D0F8BC20E36C22F0700251F8233042EA87
:101A20000312C0F8BC20D4F850C0BCF1000F0AD09B
:101A3000D0F8BC20636D22F4E06251F8231042EA32
:101A40000121C0F8BC10404504D161688A6822F0C9
:101A500003028A600021C4F89410C4F89C1001218C
:101A600084F898104FF6FC72D0F88410D4F83C90AB
:101A700021EA0203656CD4E90D120292019543EA52
:101A80008103C0F88430D0F8843023F47F0343EA24
:101A90000243C0F884305318D0F888606FF38F0683
:101AA00046EA8306C0F88860D0F8886003EB4903F3
:101AB00026F4FE0646EA0946C0F88860D0F8A06021
:101AC0006FF38F0646EA8306C0F8A060D0F8A060E6
:101AD00005FB0A3326F4FE0646EA0A46C0F8A06073
:101AE000D0F8B0606FF38F0646EA8306C0F8B060A6
:101AF000D0F8B06026F4FE0646EA0746C0F8B060AB
:101B0000E66CD0F8AC506FF38F0506FB07337E43CD
:101B100045EA8305C0F8AC50D4F8548008FB0C3576
:101B2000D0F8F0306FF38F0308FB0CFC43EA850319
:101B3000C0F8F030D0F8F0E0A36D2EF47C1242EA49
:101B40000342C0F8F02005EB4302D0F8C0506FF319
:101B50008F0545EA8202C0F8C020D0F8C020DDF829
:101B60000CB022F47C1242EA0B42C0F8C020019A69
:101B7000D0F8C05025F07C5502FB0AFE4AF2000264
:101B8000C4F20002DDF810A002EB8101029A01F517
:101B9000406145EA0A6501EB8207C0F8C05007EBD7
:101BA000C902A56E02EB8E00626700EB86060BFB96
:101BB00005F2276706EB8C07C4E91E060AFB05F051
:101BC00007EBC30303EB8202C4F884304DF2FC330D
:101BD000E16602EB8000C4F200039842C4F8807012
:101BE000C4F88820C4F8900002D920205AE600BF2B
:101BF000814221D20A46002042F8040BD4F89030EA
:101C00009A4215D2486001F10802D4F890309A4205
:101C10003FBF0020886001F10C02D4F8903038BF3B
:101C20009A4205D2C8601031D4F890209142E1D395
:101C300005B0BDE8F08F00BF002005B0BDE8F08F13
:101C4000B0B5B4B06946044601F128009021FEF712
:101C5000B1FB4AF200012068C4F20001884201D0C1
:101C600034B0B0BD00244FF4004000900225102095
:101C70000194CDE9030505200295CDE90505C020B5
:101C80000994CDE907044FF000501B90684600F01E
:101C900023FB08B1FFF7F8F944F2E040C5F6020073
:101CA000C16841F48071C160C16801F480712F91F5
:101CB0002F99016841F00801016000682FA900F028
:101CC00008002F902F980320CDE92F05092033908D
:101CD00040F60040C5F60200CDE9314400F088F836
:101CE00013200021002200F08FFA132000F07CFA6C
:101CF00015200021002200F087FA152000F074FA68
:101D000034B0B0BD000000007047000000000000CB
:101D10002DE9F04194B040F62001C2F20041884222
:101D200002D014B0BDE8F08140F620000DF120088B
:101D3000C2F200400AAA40214346FFF7E5FA002814
:101D4000EFD10DF1280ECDF818809EE8FF508DE8F8
:101D5000F050FFF7B9F814B0BDE8F08100000000C2
:101D6000704700000000000090F8981001290DD184
:101D7000022180F8981001688A6922F001028A61C4
:101D80000021C0F89C100846704700BFD0F89C1096
:101D900041F00401C0F89C100120704700000000D1
:101DA00070470000000000007047000000000000C5
:101DB00070470000000000007047000000000000B5
:101DC00070470000000000007047000000000000A5
:101DD0007047000000000000704700000000000095
:101DE0007047000000000000704700000000000085
:101DF0002DE9F04F84B08E4642F20042C5F6020251
:101E00000A219042DEF8005008BF0921002D009100
:101E100000F0E68000F12642009902F1FF720024F2
:101E20004FEAB2230126082B4FF0000738BF1946AE
:101E30004FF00008CDF808E000910DE0DEF800500A
:101E400008F1010835FA06F107F1020706F101066B
:101E500004F1040400F0C480A6F1010A012101FA92
:101E60000AF315EA0309E9D0DEF804B00BF0030524
:101E70006A1E012A1AD80321D0F808C001FA07FE09
:101E800002992CEA0E0CDDF808E0CA68BA4042EA72
:101E90000C028260CBF30012D0F804C02CEA0303DA
:101EA00002FA0AF21A4342600CE000BF032D09D186
:101EB000DEF80820012A05D10325BC4605FA07F201
:101EC000D1432FE00321C26801FA07F3022D6FEA24
:101ED000030122EA0302DEF808304FEA480C03FA55
:101EE00007F342EA0302C2601CD101916FF00301C3
:101EF00001EA5A0204F01C0502440F2101FA05F31D
:101F0000D2F820B002992BEA0303D1F810E001992E
:101F10000EFA05F5DDF808E02B431362DEF804B095
:101F20000BF0030502681BF4403F01EA020105FAC9
:101F30000CF241EA020101603FF480AF44F2F44246
:101F400040F2084CC5F60202C5F6000C0F251168D8
:101F500041F002011160116801F0020103912AF0C1
:101F60000301039A04F00C0251F80C309540AB4386
:101F7000009D05FA02F21A4341F80C204FF0B04CD4
:101F8000DCF80010DEF8042041EA0903D50258BF4E
:101F900021EA09039502CCF8003040F2040CC5F6A2
:101FA000000CDCF8001041EA090358BF21EA0903DC
:101FB0009503CCF80030DCF8801041EA090358BFE3
:101FC00021EA0903D203CCF88030DCF87C1041EA26
:101FD000090358BF21EA0903CCF87C302EE700BF83
:101FE00004B0BDE8F08F000040F65840C2F2004057
:101FF000006870470000000040F2000040F65841C1
:10200000C2F20040C2F2004100780A681044086041
:10201000704700000000000080B5032000F024F9A4
:1020200001F03EF844F2184144F2A463C5F60201FF
:10203000C0F600030A68096801F00F01C2F3032229
:10204000595C9A5C01F01F0102F01F02D04040F27F
:102050000C02C2F2004220FA01F1116040F20801C4
:10206000C2F2004108600F2000F00AF800281CBFEF
:10207000012080BD00F0A8F8002080BD0000000015
:10208000B0B58AB00F2842D8044636200022214637
:10209000002500F0B9F8362000F0A6F840F2040060
:1020A000C2F20040046044F2E840C5F60200016854
:1020B00041F010010160006801A900F010000290D9
:1020C000029802A800F090FF079C002C18BF012482
:1020D00000F0B6FF4DF68361A040C4F21B3141F21F
:1020E0000002A0FB010140F60C10C2F200404FF0CC
:1020F000FF33C4F20002026003EB9141C0E9011515
:1021000040F2E731C0E9031501F05EFB10B1012098
:102110000AB0B0BD40F60C10C2F2004001F0A4FBC2
:102120000AB0B0BD0000000010B54EF6A05E4178C8
:10213000CEF2000E90F800C04EF8081CDEF8001039
:1021400021F00101CEF8001041684EF8041C017B1B
:10215000C37A827A447B1B0643EA0171837B41EA9E
:10216000C241C27B41EA8441447A41EA4341007A58
:1021700041EA024141EA042141EA400040EA0C0000
:10218000CEF8000010BD00004EF62450CEF2000044
:10219000BFF35F8F016821F4803101600021016786
:1021A00070470000000000004EF6245140F001008E
:1021B000CEF200010867086840F480300860BFF381
:1021C0004F8FBFF36F8F704781B044F2F440C5F674
:1021D0000200016841F002010160006800F00200A5
:1021E0000090009801B07047002848BF704700F089
:1021F0001F01012202FA01F14EF200124009CEF253
:10220000000242F820107047B0B54EF60C5C00F0AA
:102210000F05CEF2000C043D6544DCF800304FF0B1
:10222000FF3CC3F3022E8EF00703042B28BF0423C8
:10223000BEF1030438BF00240CFA03F3B0F1FF3FF2
:1022400021EA030105F10C0300F160450CFA04F0EA
:10225000C8BF05F56443A14022EA0000084300011D
:102260001870B0BD000000004EF60C514FF6FF0391
:10227000CEF200010A681A4060F30A2242F0806040
:1022800040F0FD7008607047B0B544F60C05C5F627
:10229000020529684907296806D401F00701081AD0
:1022A00018BF0120B0BD00BF21F00701084328601E
:1022B000FFF79AFE044600BF55F8080C800407D4C7
:1022C000FFF792FE001BB0F57A7FF5D90120B0BD73
:1022D0000020B0BD000000002DE9F0470446C078A2
:1022E00044F22C480007C5F6020833D5606E4FEA69
:1022F000305103290CD8DFE801F003111D2600BF7F
:10230000D8F8001041F40031C8F800101BE000BFFD
:1023100001266078C0070BD020E000BF04F1080060
:10232000022101F069FE064660B16078C00715D150
:10233000354646E004F12800022101F0F1FE064690
:102340000028F2D1606ED8F8241021F4401108431F
:10235000C8F8240000266078C007E9D0A06D0428E2
:102360000ED83546DFE800F00412181E1E0000BF2C
:10237000D8F80000354640F40030C8F8000011E0FD
:1023800001250127607840071FD453E004F10800BD
:10239000002101F031FE04E004F12800002101F0E9
:1023A000BFFE05462F461DB1607840070DD441E0C1
:1023B000D8F82400A16D20F0070000250843C8F8D4
:1023C000240037466078400734D5D4F8A4004FEA9B
:1023D000705005280CD8DFE800F00311171D1D1DF3
:1023E000D8F8000040F40030C8F8000012E000BF48
:1023F000012501266078000720D455E004F108008B
:10240000002101F0F9FD04E004F12800002101F0B1
:1024100087FE05462E461DB1607800070ED443E0C6
:10242000D8F82C00D4F8A41020F46000002508434C
:10243000C8F82C003E466078000735D5D4F8A800CF
:102440004FEA306005280DD8DFE800F00412181EAE
:102450001E1E00BFD8F8000040F40030C8F800008D
:1024600012E000BF01250127E078800720D44EE06C
:1024700004F10800002101F0BFFD04E004F1280090
:10248000002101F04DFE05462F461DB1E078800782
:102490000ED43CE0D8F82C00D4F8A81020F0E0606E
:1024A00000250843C8F82C003746E07880072ED571
:1024B000E06C4FEA301003280ED8DFE800F0090383
:1024C000130900BFD8F8000040F40030C8F800003D
:1024D0002E467DB912E000BF012501266078C006B6
:1024E00019D44CE004F10800022101F085FD0546F5
:1024F0002E461DB16078C0060DD440E0D8F820000B
:10250000E16C20F0300000250843C8F820003E466A
:102510006078C00633D5E06D4FEA303004280DD81E
:10252000DFE800F00412181E1E0000BFD8F80000FB
:1025300040F40030C8F8000012E000BF0125012778
:10254000607880061FD44EE004F10800002101F0FD
:1025500053FD04E004F12800002101F0E1FD0546EF
:102560002F461DB1607880060DD43CE0D8F82400D9
:10257000E16D20F4E04000250843C8F82400374608
:10258000607880062FD5206E4FEA3040052809D8A4
:10259000DFE800F0040E1404040400BF2E46ADB9B9
:1025A00018E000BF01250126607840061FD44FE0E7
:1025B00004F10800012101F01FFD04E004F12800EE
:1025C000012101F0ADFD05462E461DB160784006A3
:1025D0000DD43DE0D8F82400216E20F4E020002541
:1025E0000843C8F824003E466078400630D5D4F849
:1025F000AC004FEA3070052808D8DFE800F0030D82
:10260000130303032F46ADB918E000BF01250127CE
:102610006078000620D442E004F10800012101F0B6
:10262000EBFC04E004F12800012101F079FD0546EE
:102630002F461DB1607800060ED430E0D8F82C008B
:10264000D4F8AC1020F0E04000250843C8F82C0076
:1026500037466078000622D5E06E58B1B0F1005FD1
:102660000CD0B0F1805F2FD1D8F8000040F40030DA
:10267000C8F800002E469DB908E000BF04F108002C
:10268000012101F0B9FC05462E464DB9D8F82400C9
:10269000E16E20F0405000250843C8F824003E4673
:1026A000E078C00733D0A06C032813D8DFE800F02F
:1026B00008021A08D8F8000040F40030C8F80000FA
:1026C000A946BDB91AE000BF01250126E078C00780
:1026D000E9D11CE001254FF00109A07840061AD588
:1026E0001CE000BF04F10800022101F085FC054652
:1026F000A9461DB1A07840060DD50FE0D8F82000FE
:10270000A16C20F0030000250843C8F82000B14662
:10271000A078400602D44F4618E000BFD8F8D40392
:1027200040F48070C8F8D403FFF75EFC064600BF93
:10273000D8F8D403C00507D4FFF756FC801B6428E3
:10274000F6D90325032701E02F468DB12078C00775
:1027500061D0A06F4FEAF00005283BD8DFE800F019
:1027600004404604040400BF002D2E4646D149E033
:10277000D8F84410D4F8B000414011F4407F11D093
:10278000D8F84410D8F8442042F48032C8F84420E5
:10279000D8F8442021F4407122F48032C8F8442053
:1027A000C8F84410B0F5807F40F0CE82FFF71CFCE3
:1027B000064641F2883A0325032700BFD8F84400B3
:1027C000800700F1BF82FFF70FFC801B5045F5D951
:1027D000BCE700BF01250126207880071FD44CE00C
:1027E00004F10800012101F007FC04E004F12800D5
:1027F000012101F095FC05462E461DB12078800789
:102800000DD43AE0D8F82800A16F20F03800002558
:102810000843C8F828003E46207880072DD5606F11
:10282000052809D8DFE800F0040E1404040400BFF2
:102830002F46ADB918E000BF0125012720784007D9
:102840001FD44DE004F10800012101F0D5FB04E0A4
:1028500004F12800012101F063FC05462F461DB15B
:10286000207840070DD43BE0D8F82800616F20F0B5
:10287000070000250843C8F828003746207840079D
:102880002ED5D4F89000052808D8DFE800F0030D15
:10289000130303032E46ADB918E000BF012601253E
:1028A0002078800620D451E004F10800012101F0D5
:1028B000A3FB04E004F12800012101F031FC0546EE
:1028C0002E461DB1207880060ED43FE0D8F82C00AB
:1028D000D4F8901020F0070000250843C8F82C0019
:1028E0003E462078800631D5D4F88C004FEA30700F
:1028F000052809D8DFE800F0040E1404040400BF22
:102900002F46ADB918E000BF012701252078400609
:1029100020D451E004F10800002101F06DFB04E037
:1029200004F12800022101F0FBFB05462F461DB1F2
:10293000207840060ED43FE0D8F82800D4F88C1058
:1029400020F0E04000250843C8F8280037462078EA
:10295000400631D5D4F898004FEAB020052809D8B0
:10296000DFE800F0040E1404040400BF2E46ADB9E5
:1029700018E000BF012601252078000620D454E08D
:1029800004F10800002101F037FB04E004F1280005
:10299000022101F0C5FB05462E461DB12078000638
:1029A0000ED442E0D8F82C00D4F8981020F4E0506F
:1029B00000250843C8F82C003E462078000634D590
:1029C000D4F89C004FEA703005280FD8DFE800F0FB
:1029D00004141A04040400BF2F46E5B1206801075F
:1029E00027D4C1063ED4000355D475E00127012544
:1029F00020680107F5D51CE004F10800002101F072
:102A0000FBFA04E004F12800022101F089FB0546ED
:102A1000002D2F46E2D1D8F82C00D4F89C1020F4D9
:102A2000604000250843C8F82C003746206801079D
:102A3000D7D5D4F88000B0F5805F09D104F1280023
:102A4000022101F06DFB002818BF0127D4F8800097
:102A5000D8F8281021F440510843C8F8280020680D
:102A6000C106C0D5D4F89400B0F5807F09D104F137
:102A70002800022101F054FB002818BF0127D4F8D8
:102A80009400D8F82C1021F440710843C8F82C00A9
:102A90002068000320D5D4F8A000B0F5003F0FD087
:102AA000B0F5803F06D078BB04F10800002101F0AA
:102AB000A3FA04E004F12800022101F031FB0546ED
:102AC0002E4655B9D8F82C00D4F8A01020F4403088
:102AD00000250843C8F82C003E46A07840072BD5B7
:102AE000D4F88400B0F5401F0BD0B0F5001F11D012
:102AF000B0F5801F2AD1D8F8000040F40030C8F8A3
:102B000000002F46CDB90DE001260125A078400731
:102B1000E6D411E004F12800012101F001FB054693
:102B20002F4655B9D8F82800D4F8841020F4401066
:102B300000250843C8F828003746A078C0070AD106
:102B40003E462168880016D533E000BF01270125E5
:102B5000A078C007F4D0206DB0F5803F10D018BB2E
:102B6000D8F8000040F40030C8F800002E4685B1C7
:102B7000216888001DD460688A0326D465E000BF00
:102B800004F10800022101F037FA0546002D2E4617
:102B9000EED1D8F82000216D20F4803000250843C4
:102BA000C8F82000CCE700BF012601252168880075
:102BB000E1D504F12800022101F0B2FA002818BF83
:102BC0000126D4E900108A033FD5E26F6FF00103BC
:102BD00003EB3223022B0BD34FEA322343B1012BF9
:102BE00040F0AA80D8F8003043F40033C8F8003031
:102BF00025B3CA022CD48A0234D44A003CD4CA0F6A
:102C000049D1090251D4C1075AD1810763D4410780
:102C10006CD4010776D4C10600F18080800607D508
:102C200004F12800022101F07BFA002818BF0125D9
:102C3000002D18BF01252846BDE8F087D8F82830B8
:102C400023F440731A43C8F828203546CA02D2D567
:102C5000D8F82420236F22F000421A43C8F8242019
:102C60008A02CAD5D8F82420A36E22F080721A43B3
:102C7000C8F824204A00C2D558F81C2C22F400427F
:102C800048F81C2CD4F8B42058F81C3C1A4348F8D7
:102C90001C2CCA0FB5D0D8F82020636D22F040520A
:102CA0001A43C8F820200902ADD5D8F82810D4F866
:102CB000882021F440011143C8F82810C107A4D08E
:102CC00004F10800002101F097F9002818BF05461B
:102CD000606881079BD504F10800012101F08CF99F
:102CE000002818BF05466068410792D504F1080026
:102CF000022101F081F9002818BF0546606801072C
:102D00007FF589AF04F12800002101F009FA0028BD
:102D100018BF05466068C1067FF580AF04F1280042
:102D2000012101F0FDF9002818BF05466068800602
:102D30007FF57EAF74E700BF0125CA027FF55BAF68
:102D400086E700BFD4F8B0004FF6CF7358F81C2CBC
:102D5000C0F2FF0300F4407122F47C5203EA101326
:102D60006FF31F30B1F5407F08BF1A43002548F8C4
:102D70001C2CD8F844100843C8F84400FFF7CBBC1B
:102D80002DE9F04381B0002800F02A8142F20008CA
:102D90000446C5F200288946D8F8000000F00F006C
:102DA00088420ED2D8F8000020F00F0040EA090057
:102DB000C8F80000D8F8000000F00F00484540F0C7
:102DC0000F81206844F218474107C5F602070AD56B
:102DD00021693A6802F07002914204D93A6822F0FF
:102DE00070021143396001070AD561697A6802F0FF
:102DF0007002914204D97A6822F07002114379601E
:102E0000C1060AD5A1697A6802F4E062914204D948
:102E10007A6822F4E0621143796081060AD5E1699B
:102E2000BA6802F07002914204D9BA6822F07002C6
:102E30001143B96010F002010AD0E2683B6803F068
:102E40000F039A4204D93B6823F00F031A433A60F8
:102E5000C20746D0386820F47061D4E90102012825
:102E600041EA0201396009D003280DD0022811D1AE
:102E700057F8181C890340F1B38010E057F8181C6C
:102E8000C90540F1AD800AE057F8181C890140F1EE
:102E9000A78004E057F8181C490740F1A18057F8B3
:102EA000081C21F00701084347F8080CFFF79CF8BD
:102EB000064641F2883500BF57F8080C616800F0FB
:102EC0003800B0EBC10F09D0FFF78EF8801BA84285
:102ED000F2D9032001B0BDE8F08300BF206800F004
:102EE000020151B1E1683A6802F00F02914204D246
:102EF0003A6822F00F0211433960D8F8001001F04F
:102F00000F0149450DD9D8F8001021F00F0141EA11
:102F10000901C8F80010D8F8001001F00F01494568
:102F20005ED141070AD521693A6802F070029142E8
:102F300004D23A6822F070021143396001070AD5C1
:102F400061697A6802F07002914204D27A6822F0D4
:102F5000700211437960C1060AD5A1697A6802F44A
:102F6000E062914204D27A6822F4E062114379600F
:102F700080060AD5E069B96801F07001884204D280
:102F8000B96821F070010843B86000F089F8396829
:102F900044F2A4633A68C0F60003C1F3032102F0CF
:102FA0000F02595C9A5C01F01F0120FA01F102F056
:102FB0001F0040F20C0221FA00F0C2F20042106041
:102FC00040F2040040F20802C2F20040C2F20042A5
:102FD0000068116001B0BDE8F043FFF751B800BFD1
:102FE000012001B0BDE8F0833F22026044F21842A4
:102FF000C5F6020252F8083C03F007034360136869
:1030000003F470638360136803F00F03C3601368F5
:1030100003F070030361536803F070034361536866
:1030200003F4E0638361926802F07002C26142F2CD
:103030000000C5F20020006800F00F000860704733
:1030400080B500F02DF844F2184C44F2A461C5F6A6
:10305000020CC0F60001DCF80020DCF8003003F0C0
:103060000F03C2F30322CB5C8A5C02F01F02D04044
:1030700003F01F0240F20C0320FA02F2C2F20043F6
:103080001A6040F20803C2F200431860DCF8040042
:10309000C0F30210085C00F01F0022FA00F080BDAF
:1030A00044F20041C5F602010869C0F3C2000328DA
:1030B00010D002282CD088BB0868800649F2000096
:1030C000C0F2D03058BF70470968C1F3C101C84091
:1030D000704700BF8A6A886AC0F3051CC86ABCF1E1
:1030E000000F4B6B20D0C3F3CC0300F0010058431A
:1030F00002F00302022A00EE100AB8EE400A15D0D0
:10310000C2B90868800619D49FED281A23E000BFD1
:1031100047F64000C0F27D10704700BF40F6001037
:10312000C0F23D00704700BF002070479FED1E1A9F
:1031300011E000BF9FED1B1A0DE000BF086849F2C7
:103140000002C0F2D032C0F3C10022FA00F001EE5A
:10315000100AB8EE411A086B9FED153A6FF35F2025
:1031600002EE100A086BC0F34620B8EE422A013086
:1031700000EE032A00EE10CAB7EE003AB8EE400A9D
:1031800081EE000A32EE031A20EE010A01EE100A67
:10319000B8EE411A80EE010ABCEEC00A10EE100A29
:1031A000704700BF0024744A20BCBE4B0024744CFE
:1031B0000000003900000000F0B581B0002800F0E8
:1031C000D5800446007844F20046C007C5F60206E2
:1031D00022D12078800768D5306910F03801B06AB4
:1031E00042D0182908BF5FEA80703DD0E06831689E
:1031F000002800F0258121F0190108433060FEF716
:10320000F3FE05463068400748D4FEF7EDFE401B4C
:103210000228F7D977E100BF306900F03801B06AC1
:10322000102905D018290BD100F00300022807D17E
:1032300030688003CDD560680028CAD196E000BF11
:103240006068002800F03281B0F5A02F00F04681C0
:10325000B0F5803F00F04681306820F48030306067
:10326000306820F4802040E130684007E06801D5F4
:1032700000287BD0316821F0190108433060FEF747
:10328000B3FE05463068400708D4FEF7ADFE401B8C
:1032900002284FF00300F5D901B0F0BD7068216934
:1032A00020F0FE4040EA016070602078C00619D529
:1032B000306900F03801B06A082906D0182940F0BA
:1032C000818000F0030001287CD13068C00502D560
:1032D000E06980284AD1F068216A20F07C5040EAF9
:1032E0000160F0602078000744D42078800655D42F
:1032F0002078400700F17E80656A9DB3306900F058
:103300003800182840F01481012DB16A306B2DD09F
:1033100001F00302A36A9A4228D1C1F30511E26ABF
:10332000914223D10146226B6FF35F21013A914212
:103330001CD1C0F34622616B01398A4216D1C0F319
:103340000642A16B01398A4210D1C0F30660E16BDD
:10335000013988420AD1706BA16CC0F3CC00814264
:1033600040F09C81002001B0F0BD00BF012001B001
:10337000F0BD00BF60690028706F4FD040F00100C1
:103380007067FEF731FE0546706F8007ADD4FEF71B
:103390002BFE401B0228F7D9B5E000BFA06900282A
:1033A000306871D040F480503060FEF71DFE054655
:1033B000306880049CD4FEF717FE401B0228F7D922
:1033C000A1E000BFE0690028306800F09F8040F075
:1033D00080003060FEF708FE054600BF3068C0057B
:1033E0003FF579AFFEF700FE401B02284FF00300C7
:1033F000F4D951E7D6F8000440F48070C6F8000410
:10340000FEF7F2FD054600BFD6F80004C00529D43A
:10341000FEF7EAFD401B6428F6D974E020F00100B5
:103420007067FEF7E1FD0546706F80077FF55DAFC1
:10343000FEF7DAFD401B02284FF00300F4D92BE71A
:1034400021F001003060FEF7CFFD054630684007EF
:103450007FF52BAFFEF7C8FD401B02284FF003009D
:10346000F4D919E7A068002800F08480052800F04E
:103470009B80012800F09C80306F20F001003067B5
:10348000306F20F0040096E020F480503060FEF7AA
:10349000ABFD0546306880047FF52AAFFEF7A4FD3A
:1034A000401B02284FF00300F4D9F5E6306820F401
:1034B00080303060306820F480203060FEF794FD6A
:1034C000054600BF306880037FF583AEFEF78CFDB4
:1034D000401B64284FF00300F4D9DDE6306840F467
:1034E00080203060306840F480303060FEF77CFD32
:1034F000054600BF306880033FF56BAEFEF774FDF4
:10350000401B6428F6D9032001B0F0BD20F08000F4
:103510003060FEF769FD05463068C0057FF5E2AE14
:10352000FEF762FD401B02284FF00300F4D9B3E61A
:10353000306820F080703060FEF756FD022D0546A1
:103540000CD100BF3068800148D5FEF74DFD401B0F
:1035500002284FF00300F5D99EE600BF30688001D5
:103560007FF500AFFEF740FD401B02284FF003003F
:10357000F4D991E6306F20F001003067306F20F011
:1035800004003067FEF730FD054641F28837306FA2
:1035900080077FF5B1AEFEF727FD401BB8424FF024
:1035A0000300F4D978E600BF306F40F004003067C4
:1035B000306F40F001003067FEF716FD054641F21E
:1035C000883700BF306F80073FF596AEFEF70CFDE1
:1035D000401BB8424FF00300F4D95DE604F1280720
:1035E000B06A40F2F33188438ECF0843591E40EA57
:1035F00002104FF47E426FF35F21B06202EB47206E
:103600004FF4FE0280B2E36B0844A16B02EB014170
:103610004FF0FE4201F4FE0102EB0362084402F0A7
:10362000FE4108443063F06A4FF6F87120F0010063
:10363000F062706BA26C884340EAC2007063F06A6B
:10364000216C20F00C000843F062F06A616C20F0FD
:1036500002000843F062F06A40F48030F062F06AE1
:1036600040F40030F062F06A40F48020F062F06ACA
:1036700040F00100F062306840F080703060FEF78A
:10368000B3FC0446306880013FF56CAEFEF7ACFC3D
:10369000001B02284FF00300F4D9FDE5F06A20F08A
:1036A0000100F062FEF7A0FC0546FEF79DFCA84273
:1036B000FBD0706B4FF6F871A26C884340EAC200F1
:1036C0007063F06A40F00100F062002001B0F0BDCC
:1036D000704700000000000070470000000000007C
:1036E0007047000000000000B0B590F83C20012AAF
:1036F0004FF0020263D080F83D2040F2004C026897
:10370000C4F2010C42F4806363455368D2F808E0C8
:1037100002BF23F470034C6823434DF6FF740D6819
:10372000C4F2000423F07003A24243EA050353608D
:1037300014DC40F2FF73C4F200039A4222DD40F62B
:103740000003C4F200039A422ED040F60043C4F2B4
:1037500000039A4228D041F6000321E04FF6FF73A0
:10376000C4F200039A4213DD0023C4F201039A421B
:103770001AD044F20003C4F201039A4214D0624505
:1037800012D016E0B2F1804F0ED040F2004307E0B5
:103790004EF20003C4F200039A4205D04EF20043F9
:1037A000C4F200039A4204D12EF0800389681943C1
:1037B00091600022012180F83D1080F83C201046E5
:1037C000B0BD00000000000060B310B5044690F8E2
:1037D0003D0028B9002084F83C00204600F024F881
:1037E000022084F83D002068211D00F015FE012014
:1037F00084F8480084F83E0084F83F0084F84000D4
:1038000084F8410084F8420084F8430084F84400BE
:1038100084F8450084F8460084F8470084F83D00A9
:10382000002010BD0120704780B582B00068B0F163
:10383000804F1CBF02B080BD44F2E8400022C5F6B4
:103840000200016841F0010101600068002100F000
:103850000100019001981C20FEF7D6FC1C2002B04C
:10386000BDE88040FEF7C0BC90F83D10012927D18B
:10387000022180F83D1001684DF6FF70C4F200008F
:103880008142C86840F00100C8601BDC40F2FF7054
:10389000C4F2000081422DDD40F60000C4F20000B9
:1038A00081423DD040F60040C4F20000814237D052
:1038B00041F60000C4F20000814231D03CE000BF7C
:1038C000012070474FF6FF70C4F2000081421BDDFB
:1038D0000020C4F20100814222D044F20000C4F270
:1038E000010081421CD040F20040C4F2010081423C
:1038F00016D021E0B1F1804F12D040F20040C4F266
:10390000000081420CD017E04EF20000C4F200002B
:10391000814205D04EF20040C4F2000081420BD13A
:1039200007228868C0F2010202400020062A18BF60
:10393000B2F5803F00D17047086840F00100086090
:10394000002070470000000010B590F83C20012ACC
:103950004FF0020200F0B78080F83D208822D0F8B6
:1039600000E0CFF6CE72DEF808301A40CEF808201C
:103970000B686F2B0EDDB3F1101F39DAB3F5005F62
:1039800048DA702B00F0A280B3F5805F00F09480DD
:10399000E4E000BF2F2B35DD4F2B41DC302B00F056
:1039A0007F80402B40F0DA8043F6FF72D1F804C0EC
:1039B000C4F20102C968DEF820309645DEF8202006
:1039C00022F00102CEF8202040F3CA8044F2000227
:1039D000C4F20102964500F0CE8044F60002C4F223
:1039E0000102964500F0C78044F20042BFE000BFEC
:1039F0002F21C0F210018B4248DCB3F1101F4FD0D1
:103A0000202149E0002B18BF102B49D0202B47D094
:103A1000A4E000BF6ED0B3F5801F41D09EE000BF90
:103A2000502B7BD0602B40F0998040F200444EF444
:103A30008062C4F20104D1F804C0C968DEF8203005
:103A4000A242DEF8202022F01002CEF8202002BF91
:103A5000DEF8202022F04002CEF82020DEF81820E8
:103A600022F4704242EA013123F0A002CEF818108D
:103A700042EA0C11CEF820104FF68872DEF80810DA
:103A8000CFF6CF721140673114E000BF3021C0F291
:103A900010018B4204D04021C0F210018B425DD155
:103AA0004FF68872DEF80810CFF6CF721140194336
:103AB00041F00701CEF808100022012180F83D10E6
:103AC000002180F83C10104610BD00BFD1E901C3B1
:103AD000C968DEF8082043EA0C0322F47F4243EA77
:103AE00001211143CEF80810DEF8081041F07701EB
:103AF000E0E700BFD1E901C3C968DEF8082043EA66
:103B00000C0322F47F4243EA01211143CEF808104E
:103B1000DEF8081041F48041CCE700BF43F6FF72A5
:103B2000D1F804C0C4F20102C968DEF8203096451D
:103B3000DEF8202022F00102CEF8202038DD44F209
:103B40000002C4F2010296453DD044F60002C4F2E0
:103B50000102964537D044F2004230E00122ACE742
:103B60000022C4F20102964505D040F20042C4F2A0
:103B70000102964505D1DEF8202022F00402CEF89D
:103B80002020DEF8182022F0F00242EA011123F092
:103B90000A02CEF8181042EA0C01CEF820104FF6B7
:103BA0008872DEF80810CFF6CF721140473181E7F6
:103BB0000022C4F20102964505D040F20042C4F250
:103BC0000102964505D1DEF8202022F00402CEF84D
:103BD0002020DEF8182022F0F00242EA011123F042
:103BE0000A02CEF8181042EA0C01CEF820104FF667
:103BF0008872DEF80810CFF6CF721140573159E7BE
:103C00007047000000000000F0B581B00446006875
:103C1000C5680669B10717D515F0020114D06FF019
:103C200002010161012121778069800704D02046CB
:103C3000FFF7E6FF06E000BF204600F09DF82046B3
:103C400000F09EF800202077700719D515F00400C9
:103C500016D020686FF0040101610221217780698C
:103C600010F4407F04D02046FFF7CAFF06E000BFF3
:103C7000204600F081F8204600F082F800202077EE
:103C8000300717D515F0080014D020686FF0080130
:103C9000016104212177C069800703D02046FFF726
:103CA000AFFF05E0204600F067F8204600F068F816
:103CB00000202077F00619D515F0100016D02068E6
:103CC0006FF01001016108212177C06910F4407F75
:103CD00004D02046FFF794FF06E000BF204600F026
:103CE0004BF8204600F04CF800202077F00718BF72
:103CF00015F0010006D020686FF001010161204637
:103D000000F042F805F0800716F4025F18BF002F9C
:103D100002D1F00509D410E020686FF4025101616E
:103D20002046FFF7D9FCF00507D537B120686FF4BE
:103D3000807101612046FFF7CBFC700609D515F0B4
:103D4000400006D020686FF040010161204600F07D
:103D500033F8B0060CD515F0200009D020686FF0BC
:103D600020010161204601B0BDE8F040FFF7B8BC7A
:103D700001B0F0BD0000000070470000000000002E
:103D8000704700000000000010B541F20001044639
:103D90000068C4F20001884202D1FEF72DF92068C4
:103DA000B0F1804F18BF10BDFDF74AF8BDE81040D4
:103DB000FCF76ABB00000000704700000000000034
:103DC000FEE700000000000080B540F620004AF247
:103DD0000001C2F20040C4F2000101224FF0080CC1
:103DE00001600021C0E90211C0F80F101F234261D9
:103DF000C0F818C0C0E9073CC0E90922C0E90B229D
:103E0000C0E90D12C163032202640423C0E9113129
:103E1000C0E91331C0E91531C0E91712C0E919131F
:103E2000FDF70EFD002808BF80BDBDE88040FDF70E
:103E30002BB900000000000082B044F2E040C5F65B
:103E40000200016841F080010160016801F0800119
:103E500001910199016841F008010160006800F0DA
:103E600008000090009802B07047000000000000B9
:103E700080B588B040F6C0000021C2F20040079132
:103E8000CDE9051102914FF0804202604FF4897232
:103E9000C0E9012140F2E7328161C0E90321FFF767
:103EA00093FC08B1FDF7F0F84FF48050049040F611
:103EB000C00004A9C2F20040FFF746FD08B1FDF7BB
:103EC000E3F800200190039040F6C000C2F20040E9
:103ED00001A9FFF709FC08B1FDF7D6F808B080BDCD
:103EE000FEE7000000000000FEE700000000000008
:103EF00090ED030A90ED041A90F8241030EE411A68
:103F000080ED061AA1B3012954D1B6EE000A90ED56
:103F1000082A2AA19FED2B3A22EE002AA1EE002AC0
:103F2000B0EEC20AB5EE402AF1EE10FAA8BF043195
:103F3000B4EE430A90ED003AF1EE10FA91ED000A6A
:103F400090ED074A30FE022A90ED010A80ED082A22
:103F500080ED071A20EE020AA3EE010A31EE443A80
:103F600090ED024AA4EE030A80ED050A704700BFF7
:103F7000B8EE000AB0EE415A90ED072A90ED086ABB
:103F800090ED014A31EE423AA2EE005A80ED071A56
:103F900021EE040A90ED004A80ED082AA4EE030AFF
:103FA00090ED024A35EE063AA4EE030A80ED050ACA
:103FB000704700BF90ED050A704700BF0000C8C2FF
:103FC0000000C8420000C84280EC030A80F82410B8
:103FD0000021C0E90311C0E90511C0E907117047CC
:103FE0000021C0E90311C0E90511C0E907117047BC
:103FF0007047000000000000F0B581B044F22C478B
:10400000C5F6020757F8042C02F00302032A03D175
:10401000012001B0F0BD00BF054657F82C0C0C463E
:1040200020F0806047F82C0CFDF7DEFF064600BF4D
:1040300057F82C0C000105D5FDF7D6FF801B022890
:10404000F6D964E057F8040CEE6895E80E0020F409
:104050007C30012C40EA0130A2F101016FF35F21B5
:104060004FF47E4202EB432247F8040C92B24FF029
:10407000FE4302EB01004FF4FE012A6901EB064109
:1040800001F4FE0103EB0262084402F0FE41084421
:10409000F8603868696920F0C00040EA01003860C3
:1040A0003868A96920F0200040EA010038603868CB
:1040B0004FF6F87120F0100038603869EA6920EA9C
:1040C00001004FF4001140EAC2003861386808BFAF
:1040D0004FF4801140F01000002C386008BF4FF4FE
:1040E000002138680843386057F82C0C40F0806095
:1040F00047F82C0CFDF778FF044600BF57F82C0C4E
:10410000000107D4FDF770FF001B0328F6D303203E
:1041100001B0F0BD002001B0F0BD000000000000C3
:10412000F0B581B044F22C47C5F6020757F8042CCD
:1041300002F00302032A03D1012001B0F0BD00BF49
:10414000054657F82C0C0C4620F0805047F82C0CF4
:10415000FDF74AFF064600BF57F82C0C800005D536
:10416000FDF742FF801B0228F6D964E057F8040CE3
:10417000EE6895E80E0020F07C70012C40EA0150BA
:10418000A2F101016FF35F214FF47E4202EB432263
:1041900047F8040C92B24FF0FE4302EB01004FF4DB
:1041A000FE012A6901EB064101F4FE0103EB026204
:1041B000084402F0FE41084478613868696920F4D7
:1041C000406040EA010038603868A96920F4007056
:1041D00040EA0100386038684FF6F87120F48070CA
:1041E0003860B869EA6920EA01004FF0807140EA5E
:1041F000C200B861386808BF4FF4000140F4807015
:10420000002C386008BF4FF48001386808433860DC
:1042100057F82C0C40F0805047F82C0CFDF7E4FECA
:10422000044600BF57F82C0C800007D4FDF7DCFED5
:10423000001B0328F6D3032001B0F0BD002001B01D
:10424000F0BD00000000000070470000000000000A
:104250007047000000000000B0B59CB044F61804A0
:10426000022000251195CDE90F55CDE90D55CDE979
:104270000B550895C5F60204CDE90655CDE9045560
:10428000CDE902550195FDF7FFFF0095206820F468
:1042900040402060206800F4404000900098206872
:1042A000800409D4206880045CBF20685FEA8040F5
:1042B00002D420688004F2D5012009904FF48031A7
:1042C0000A9102212C22CDE9152004201491CDE978
:1042D00017010C20199009A80024CDE91211CDE98D
:1042E0001A44FEF769FF18B172B600BFFEE700BFBF
:1042F0003F20019003204FF48061CDE902040820A3
:1043000004904020CDE90500CDE9071001A8032164
:10431000FEF736FD10B172B6FEE700BF1CB0B0BDAF
:104320004EF6885042F2000CCEF20000C5F2002C8E
:10433000026842F470020260DCF8000000F00F0036
:10434000062806D8DCF80000072262F30300CCF848
:10435000000044F200404EF67F51C5F60200CEF652
:10436000F621026842F00102026000220261036845
:1043700019400160DCF80010090706D5DCF80010D0
:10438000072363F30301CCF8001040F2002182619F
:10439000C261C0F20221026281620021C0F2FF11FB
:1043A000C16240F28021C0F2011101634263816366
:1043B000C26301644264016821F4802101600266E5
:1043C000D0F8D410C90448BF7047D0F8D41043F2D5
:1043D000D20241F48051C0F8D41044F20001C5F279
:1043E00000210A60D0F8D41021F48051C0F8D41014
:1043F000704700000000000040F6C000C2F200401C
:10440000FFF702BC0000000040F60C10C2F20040B2
:10441000FFF7FABB0000000010B540F6FF32D0F8FD
:1044200000E0C4F20002904210DCB0F1804F1ED0D8
:1044300040F20043C4F20003984218D040F6000353
:10444000C4F20003984212D016E000BF40F60043C9
:10445000C4F2000398420AD040F20043C4F20103C0
:10446000984204D00023C4F20103984204D12EF0F4
:1044700070024B6843EA020E4EF2FF3343F6FF7CB4
:10448000C4F20003C4F2010C984213DD60452BDC3A
:104490004EF20043C4F20003984242D00023C4F21B
:1044A000010398423DD040F20043C4F20103984218
:1044B00037D03BE040F2FF73C4F20003984227DD9F
:1044C00040F60003C4F2000398422AD040F60043AD
:1044D000C4F20003984224D04EF20003C4F2000359
:1044E00098421ED022E000BF44F20003C4F2010350
:1044F000984216D044F60003C4F20103984210D04B
:1045000044F20043C4F2010398420AD00EE000BF17
:10451000B0F1804F05D040F20043C4F2000398424E
:1045200004D12EF44072CB6843EA020E4B69604519
:104530000A688C68C462826212DD44F20002C4F22E
:104540000102904217D044F60002C4F201029042E8
:1045500011D044F20042C4F2010290420BD00CE0B0
:104560000022C4F20102904205D040F20042C4F29F
:104570000102904201D109690163016841F004011F
:104580000160012141612EF080011943016010BDDD
:10459000FEE700000000000088B001240094FDF751
:1045A000F3FD48F21F7002904FF00110039068462F
:1045B00000250195FDF7B8FD0420FDF7F5FDFDF799
:1045C0002BFDFFF749FEFFF737FCFFF7FDFBFFF779
:1045D0004FFCCDE9065540F2012004904FF40270E3
:1045E000059040F620006946C2F20040CDE9005532
:1045F000CDE90254FCF738FE10B172B6FEE700BFF9
:1046000040F62000C2F20040FDF7AEFB10B172B6DA
:10461000FEE700BF40F620000121C2F20040002268
:10462000FCF75EFD10B172B6FEE700BFFCF718F8AC
:1046300040F6C000C2F20040FFF716F9FEE7F1EEC7
:10464000100A4FF6FF71C0F2C03120EA010040F0BD
:104650004070E1EE100A704700000000000000000A
:104660000000000000000000000000000100000049
:104670000200000003000000040000000000000031
:104680000500000000000000000000000000000025
:104690000600000000000000000000000000000014
:1046A00007000000000000000102030401020304EF
:1046B000060708090001020304050607080C101488
:1046C00018203040E84600080000002410000000D8
:1046D00008030008F84600081000002450120000EB
:1046E000240300080000000001000000100000008A
:0846F0000090D0030090D003FC
:04000005080002CD20
:00000001FF
